{
  "contractName": "Donation",
  "abi": [
    {
      "inputs": [],
      "stateMutability": "nonpayable",
      "type": "constructor"
    },
    {
      "inputs": [],
      "name": "donatur",
      "outputs": [
        {
          "internalType": "address",
          "name": "",
          "type": "address"
        }
      ],
      "stateMutability": "view",
      "type": "function"
    },
    {
      "inputs": [],
      "name": "money",
      "outputs": [
        {
          "internalType": "uint256",
          "name": "",
          "type": "uint256"
        }
      ],
      "stateMutability": "view",
      "type": "function"
    },
    {
      "inputs": [],
      "name": "useless_variable",
      "outputs": [
        {
          "internalType": "string",
          "name": "",
          "type": "string"
        }
      ],
      "stateMutability": "view",
      "type": "function"
    },
    {
      "stateMutability": "payable",
      "type": "receive"
    },
    {
      "inputs": [
        {
          "internalType": "string",
          "name": "param",
          "type": "string"
        }
      ],
      "name": "change_useless_variable",
      "outputs": [],
      "stateMutability": "nonpayable",
      "type": "function"
    },
    {
      "inputs": [],
      "name": "donate",
      "outputs": [],
      "stateMutability": "payable",
      "type": "function"
    },
    {
      "inputs": [],
      "name": "receive_donation",
      "outputs": [],
      "stateMutability": "nonpayable",
      "type": "function"
    }
  ],
  "bytecode": "0x608060405234801562000010575f80fd5b503360015f6101000a81548173ffffffffffffffffffffffffffffffffffffffff021916908373ffffffffffffffffffffffffffffffffffffffff1602179055506040518060400160405280600f81526020017f446f6e6174696f6e20737472696e6700000000000000000000000000000000008152506003908162000097919062000302565b50620003e6565b5f81519050919050565b7f4e487b71000000000000000000000000000000000000000000000000000000005f52604160045260245ffd5b7f4e487b71000000000000000000000000000000000000000000000000000000005f52602260045260245ffd5b5f60028204905060018216806200011a57607f821691505b60208210810362000130576200012f620000d5565b5b50919050565b5f819050815f5260205f209050919050565b5f6020601f8301049050919050565b5f82821b905092915050565b5f60088302620001947fffffffffffffffffffffffffffffffffffffffffffffffffffffffffffffffff8262000157565b620001a0868362000157565b95508019841693508086168417925050509392505050565b5f819050919050565b5f819050919050565b5f620001ea620001e4620001de84620001b8565b620001c1565b620001b8565b9050919050565b5f819050919050565b6200020583620001ca565b6200021d6200021482620001f1565b84845462000163565b825550505050565b5f90565b6200023362000225565b62000240818484620001fa565b505050565b5b8181101562000267576200025b5f8262000229565b60018101905062000246565b5050565b601f821115620002b657620002808162000136565b6200028b8462000148565b810160208510156200029b578190505b620002b3620002aa8562000148565b83018262000245565b50505b505050565b5f82821c905092915050565b5f620002d85f1984600802620002bb565b1980831691505092915050565b5f620002f28383620002c7565b9150826002028217905092915050565b6200030d826200009e565b67ffffffffffffffff811115620003295762000328620000a8565b5b62000335825462000102565b620003428282856200026b565b5f60209050601f83116001811462000378575f841562000363578287015190505b6200036f8582620002e5565b865550620003de565b601f198416620003888662000136565b5f5b82811015620003b1578489015182556001820191506020850194506020810190506200038a565b86831015620003d15784890151620003cd601f891682620002c7565b8355505b6001600288020188555050505b505050505050565b610a2580620003f45f395ff3fe608060405260043610610058575f3560e01c8063173b30101461006b5780634ddd108a14610095578063620205c5146100bf5780638bed928a146100e75780639afa0625146100fd578063ed88c68e1461012757610067565b3661006757610065610131565b005b5f80fd5b348015610076575f80fd5b5061007f6101bb565b60405161008c91906103b8565b60405180910390f35b3480156100a0575f80fd5b506100a96101de565b6040516100b691906103e9565b60405180910390f35b3480156100ca575f80fd5b506100e560048036038101906100e0919061054f565b6101e4565b005b3480156100f2575f80fd5b506100fb6101f7565b005b348015610108575f80fd5b506101116102ed565b60405161011e9190610610565b60405180910390f35b61012f610131565b005b5f3411610173576040517f08c379a000000000000000000000000000000000000000000000000000000000815260040161016a9061067a565b60405180910390fd5b335f806101000a81548173ffffffffffffffffffffffffffffffffffffffff021916908373ffffffffffffffffffffffffffffffffffffffff16021790555034600281905550565b5f8054906101000a900473ffffffffffffffffffffffffffffffffffffffff1681565b60025481565b80600390816101f39190610892565b5050565b60015f9054906101000a900473ffffffffffffffffffffffffffffffffffffffff1673ffffffffffffffffffffffffffffffffffffffff163373ffffffffffffffffffffffffffffffffffffffff1614610286576040517f08c379a000000000000000000000000000000000000000000000000000000000815260040161027d906109d1565b60405180910390fd5b60015f9054906101000a900473ffffffffffffffffffffffffffffffffffffffff1673ffffffffffffffffffffffffffffffffffffffff166108fc4790811502906040515f60405180830381858888f193505050501580156102ea573d5f803e3d5ffd5b50565b600380546102fa906106c5565b80601f0160208091040260200160405190810160405280929190818152602001828054610326906106c5565b80156103715780601f1061034857610100808354040283529160200191610371565b820191905f5260205f20905b81548152906001019060200180831161035457829003601f168201915b505050505081565b5f73ffffffffffffffffffffffffffffffffffffffff82169050919050565b5f6103a282610379565b9050919050565b6103b281610398565b82525050565b5f6020820190506103cb5f8301846103a9565b92915050565b5f819050919050565b6103e3816103d1565b82525050565b5f6020820190506103fc5f8301846103da565b92915050565b5f604051905090565b5f80fd5b5f80fd5b5f80fd5b5f80fd5b5f601f19601f8301169050919050565b7f4e487b71000000000000000000000000000000000000000000000000000000005f52604160045260245ffd5b6104618261041b565b810181811067ffffffffffffffff821117156104805761047f61042b565b5b80604052505050565b5f610492610402565b905061049e8282610458565b919050565b5f67ffffffffffffffff8211156104bd576104bc61042b565b5b6104c68261041b565b9050602081019050919050565b828183375f83830152505050565b5f6104f36104ee846104a3565b610489565b90508281526020810184848401111561050f5761050e610417565b5b61051a8482856104d3565b509392505050565b5f82601f83011261053657610535610413565b5b81356105468482602086016104e1565b91505092915050565b5f602082840312156105645761056361040b565b5b5f82013567ffffffffffffffff8111156105815761058061040f565b5b61058d84828501610522565b91505092915050565b5f81519050919050565b5f82825260208201905092915050565b5f5b838110156105cd5780820151818401526020810190506105b2565b5f8484015250505050565b5f6105e282610596565b6105ec81856105a0565b93506105fc8185602086016105b0565b6106058161041b565b840191505092915050565b5f6020820190508181035f83015261062881846105d8565b905092915050565b7f446f6e6174696f6e206d7573742062652067726561746572207468616e2030005f82015250565b5f610664601f836105a0565b915061066f82610630565b602082019050919050565b5f6020820190508181035f83015261069181610658565b9050919050565b7f4e487b71000000000000000000000000000000000000000000000000000000005f52602260045260245ffd5b5f60028204905060018216806106dc57607f821691505b6020821081036106ef576106ee610698565b5b50919050565b5f819050815f5260205f209050919050565b5f6020601f8301049050919050565b5f82821b905092915050565b5f600883026107517fffffffffffffffffffffffffffffffffffffffffffffffffffffffffffffffff82610716565b61075b8683610716565b95508019841693508086168417925050509392505050565b5f819050919050565b5f61079661079161078c846103d1565b610773565b6103d1565b9050919050565b5f819050919050565b6107af8361077c565b6107c36107bb8261079d565b848454610722565b825550505050565b5f90565b6107d76107cb565b6107e28184846107a6565b505050565b5b81811015610805576107fa5f826107cf565b6001810190506107e8565b5050565b601f82111561084a5761081b816106f5565b61082484610707565b81016020851015610833578190505b61084761083f85610707565b8301826107e7565b50505b505050565b5f82821c905092915050565b5f61086a5f198460080261084f565b1980831691505092915050565b5f610882838361085b565b9150826002028217905092915050565b61089b82610596565b67ffffffffffffffff8111156108b4576108b361042b565b5b6108be82546106c5565b6108c9828285610809565b5f60209050601f8311600181146108fa575f84156108e8578287015190505b6108f28582610877565b865550610959565b601f198416610908866106f5565b5f5b8281101561092f5784890151825560018201915060208501945060208101905061090a565b8683101561094c5784890151610948601f89168261085b565b8355505b6001600288020188555050505b505050505050565b7f4f6e6c792074686520646f6e617465652063616e207265636569766520646f6e5f8201527f6174696f6e730000000000000000000000000000000000000000000000000000602082015250565b5f6109bb6026836105a0565b91506109c682610961565b604082019050919050565b5f6020820190508181035f8301526109e8816109af565b905091905056fea2646970667358221220bc7ce7c99b131d408f78f1459a3394f6ce201ebbceea913f49466b8392dc623164736f6c63430008150033",
  "immutableReferences": {},
  "source": "// SPDX-License-Identifier: MIT\npragma solidity ^0.8.0;\n\ncontract Donation {\n    address public donatur;\n    address payable donatee;\n    uint public money;\n    string public useless_variable;\n\n    constructor() {\n        donatee = payable(msg.sender);\n        useless_variable = \"Donation string\";\n    }\n\n    function change_useless_variable(string memory param) public {\n        useless_variable = param;\n    }\n\n    function donate() public payable {\n        require(msg.value > 0, \"Donation must be greater than 0\");\n        donatur = msg.sender;\n        money = msg.value;\n    }\n\n    function receive_donation() public {\n        require(msg.sender == donatee, \"Only the donatee can receive donations\");\n        donatee.transfer(address(this).balance);\n    }\n\n    receive() external payable {\n        donate();\n    }\n}\n",
  "sourcePath": "/home/tszarly-j/blockchain/my_first_smart_contract/contracts/donation.sol",
  "compiler": {
    "name": "solc",
    "version": "0.8.21+commit.d9974bed.Emscripten.clang"
  },
  "schemaVersion": "3.4.16",
  "updatedAt": "2024-07-07T19:28:25.863Z",
  "devdoc": {
    "kind": "dev",
    "methods": {},
    "version": 1
  },
  "userdoc": {
    "kind": "user",
    "methods": {},
    "version": 1
  }
}